{
  "_format": "hh-sol-artifact-1",
  "contractName": "MyEpicNFT",
  "sourceName": "contracts/MyEpicNFT.sol",
  "abi": [
    {
      "inputs": [],
      "stateMutability": "nonpayable",
      "type": "constructor"
    },
    {
      "anonymous": false,
      "inputs": [
        {
          "indexed": true,
          "internalType": "address",
          "name": "owner",
          "type": "address"
        },
        {
          "indexed": true,
          "internalType": "address",
          "name": "approved",
          "type": "address"
        },
        {
          "indexed": true,
          "internalType": "uint256",
          "name": "tokenId",
          "type": "uint256"
        }
      ],
      "name": "Approval",
      "type": "event"
    },
    {
      "anonymous": false,
      "inputs": [
        {
          "indexed": true,
          "internalType": "address",
          "name": "owner",
          "type": "address"
        },
        {
          "indexed": true,
          "internalType": "address",
          "name": "operator",
          "type": "address"
        },
        {
          "indexed": false,
          "internalType": "bool",
          "name": "approved",
          "type": "bool"
        }
      ],
      "name": "ApprovalForAll",
      "type": "event"
    },
    {
      "anonymous": false,
      "inputs": [
        {
          "indexed": false,
          "internalType": "address",
          "name": "sender",
          "type": "address"
        },
        {
          "indexed": false,
          "internalType": "uint256",
          "name": "tokenId",
          "type": "uint256"
        }
      ],
      "name": "NewEpicNFTMinted",
      "type": "event"
    },
    {
      "anonymous": false,
      "inputs": [
        {
          "indexed": true,
          "internalType": "address",
          "name": "from",
          "type": "address"
        },
        {
          "indexed": true,
          "internalType": "address",
          "name": "to",
          "type": "address"
        },
        {
          "indexed": true,
          "internalType": "uint256",
          "name": "tokenId",
          "type": "uint256"
        }
      ],
      "name": "Transfer",
      "type": "event"
    },
    {
      "inputs": [
        {
          "internalType": "address",
          "name": "to",
          "type": "address"
        },
        {
          "internalType": "uint256",
          "name": "tokenId",
          "type": "uint256"
        }
      ],
      "name": "approve",
      "outputs": [],
      "stateMutability": "nonpayable",
      "type": "function"
    },
    {
      "inputs": [
        {
          "internalType": "address",
          "name": "owner",
          "type": "address"
        }
      ],
      "name": "balanceOf",
      "outputs": [
        {
          "internalType": "uint256",
          "name": "",
          "type": "uint256"
        }
      ],
      "stateMutability": "view",
      "type": "function"
    },
    {
      "inputs": [
        {
          "internalType": "uint256",
          "name": "tokenId",
          "type": "uint256"
        }
      ],
      "name": "getApproved",
      "outputs": [
        {
          "internalType": "address",
          "name": "",
          "type": "address"
        }
      ],
      "stateMutability": "view",
      "type": "function"
    },
    {
      "inputs": [],
      "name": "getTotalNFTsMintedSoFar",
      "outputs": [
        {
          "internalType": "uint256",
          "name": "",
          "type": "uint256"
        }
      ],
      "stateMutability": "view",
      "type": "function"
    },
    {
      "inputs": [
        {
          "internalType": "address",
          "name": "owner",
          "type": "address"
        },
        {
          "internalType": "address",
          "name": "operator",
          "type": "address"
        }
      ],
      "name": "isApprovedForAll",
      "outputs": [
        {
          "internalType": "bool",
          "name": "",
          "type": "bool"
        }
      ],
      "stateMutability": "view",
      "type": "function"
    },
    {
      "inputs": [],
      "name": "makeAnEpicNFT",
      "outputs": [],
      "stateMutability": "nonpayable",
      "type": "function"
    },
    {
      "inputs": [],
      "name": "name",
      "outputs": [
        {
          "internalType": "string",
          "name": "",
          "type": "string"
        }
      ],
      "stateMutability": "view",
      "type": "function"
    },
    {
      "inputs": [
        {
          "internalType": "uint256",
          "name": "tokenId",
          "type": "uint256"
        }
      ],
      "name": "ownerOf",
      "outputs": [
        {
          "internalType": "address",
          "name": "",
          "type": "address"
        }
      ],
      "stateMutability": "view",
      "type": "function"
    },
    {
      "inputs": [
        {
          "internalType": "uint256",
          "name": "tokenId",
          "type": "uint256"
        }
      ],
      "name": "pickRandomColor",
      "outputs": [
        {
          "internalType": "string",
          "name": "",
          "type": "string"
        }
      ],
      "stateMutability": "view",
      "type": "function"
    },
    {
      "inputs": [
        {
          "internalType": "uint256",
          "name": "tokenId",
          "type": "uint256"
        }
      ],
      "name": "pickRandomFirstWord",
      "outputs": [
        {
          "internalType": "string",
          "name": "",
          "type": "string"
        }
      ],
      "stateMutability": "view",
      "type": "function"
    },
    {
      "inputs": [
        {
          "internalType": "uint256",
          "name": "tokenId",
          "type": "uint256"
        }
      ],
      "name": "pickRandomSecondWord",
      "outputs": [
        {
          "internalType": "string",
          "name": "",
          "type": "string"
        }
      ],
      "stateMutability": "view",
      "type": "function"
    },
    {
      "inputs": [
        {
          "internalType": "uint256",
          "name": "tokenId",
          "type": "uint256"
        }
      ],
      "name": "pickRandomThirdWord",
      "outputs": [
        {
          "internalType": "string",
          "name": "",
          "type": "string"
        }
      ],
      "stateMutability": "view",
      "type": "function"
    },
    {
      "inputs": [
        {
          "internalType": "address",
          "name": "from",
          "type": "address"
        },
        {
          "internalType": "address",
          "name": "to",
          "type": "address"
        },
        {
          "internalType": "uint256",
          "name": "tokenId",
          "type": "uint256"
        }
      ],
      "name": "safeTransferFrom",
      "outputs": [],
      "stateMutability": "nonpayable",
      "type": "function"
    },
    {
      "inputs": [
        {
          "internalType": "address",
          "name": "from",
          "type": "address"
        },
        {
          "internalType": "address",
          "name": "to",
          "type": "address"
        },
        {
          "internalType": "uint256",
          "name": "tokenId",
          "type": "uint256"
        },
        {
          "internalType": "bytes",
          "name": "_data",
          "type": "bytes"
        }
      ],
      "name": "safeTransferFrom",
      "outputs": [],
      "stateMutability": "nonpayable",
      "type": "function"
    },
    {
      "inputs": [
        {
          "internalType": "address",
          "name": "operator",
          "type": "address"
        },
        {
          "internalType": "bool",
          "name": "approved",
          "type": "bool"
        }
      ],
      "name": "setApprovalForAll",
      "outputs": [],
      "stateMutability": "nonpayable",
      "type": "function"
    },
    {
      "inputs": [
        {
          "internalType": "bytes4",
          "name": "interfaceId",
          "type": "bytes4"
        }
      ],
      "name": "supportsInterface",
      "outputs": [
        {
          "internalType": "bool",
          "name": "",
          "type": "bool"
        }
      ],
      "stateMutability": "view",
      "type": "function"
    },
    {
      "inputs": [],
      "name": "symbol",
      "outputs": [
        {
          "internalType": "string",
          "name": "",
          "type": "string"
        }
      ],
      "stateMutability": "view",
      "type": "function"
    },
    {
      "inputs": [
        {
          "internalType": "uint256",
          "name": "tokenId",
          "type": "uint256"
        }
      ],
      "name": "tokenURI",
      "outputs": [
        {
          "internalType": "string",
          "name": "",
          "type": "string"
        }
      ],
      "stateMutability": "view",
      "type": "function"
    },
    {
      "inputs": [
        {
          "internalType": "address",
          "name": "from",
          "type": "address"
        },
        {
          "internalType": "address",
          "name": "to",
          "type": "address"
        },
        {
          "internalType": "uint256",
          "name": "tokenId",
          "type": "uint256"
        }
      ],
      "name": "transferFrom",
      "outputs": [],
      "stateMutability": "nonpayable",
      "type": "function"
    }
  ],
  "bytecode": "0x608060405260405180610100016040528060d38152602001620046ff60d3913960089080519060200190620000369291906200082c565b50604051806080016040528060568152602001620047d26056913960099080519060200190620000689291906200082c565b506040518060c001604052806040518060400160405280600581526020017f776974747900000000000000000000000000000000000000000000000000000081525081526020016040518060400160405280600781526020017f707269636b6c790000000000000000000000000000000000000000000000000081525081526020016040518060400160405280600b81526020017f6f76657277726f7567687400000000000000000000000000000000000000000081525081526020016040518060400160405280600481526020017f666976650000000000000000000000000000000000000000000000000000000081525081526020016040518060400160405280600481526020017f6c6174650000000000000000000000000000000000000000000000000000000081525081526020016040518060400160405280600781526020017f6469726566756c00000000000000000000000000000000000000000000000000815250815250600a906006620001e6929190620008bd565b506040518060c001604052806040518060400160405280600781526020017f64656c696768740000000000000000000000000000000000000000000000000081525081526020016040518060400160405280600481526020017f646f636b0000000000000000000000000000000000000000000000000000000081525081526020016040518060400160405280600781526020017f6b6e6f77696e670000000000000000000000000000000000000000000000000081525081526020016040518060400160405280600381526020017f746f65000000000000000000000000000000000000000000000000000000000081525081526020016040518060400160405280600581526020017f7363616c6500000000000000000000000000000000000000000000000000000081525081526020016040518060400160405280600581526020017f626c696e6b000000000000000000000000000000000000000000000000000000815250815250600b90600662000364929190620008bd565b506040518060c001604052806040518060400160405280600481526020017f68616c6c0000000000000000000000000000000000000000000000000000000081525081526020016040518060400160405280600d81526020017f6164766572746973656d656e740000000000000000000000000000000000000081525081526020016040518060400160405280600381526020017f6c6965000000000000000000000000000000000000000000000000000000000081525081526020016040518060400160405280600681526020017f64616d616765000000000000000000000000000000000000000000000000000081525081526020016040518060400160405280600481526020017f626f6f6b0000000000000000000000000000000000000000000000000000000081525081526020016040518060400160405280600481526020017f6875676500000000000000000000000000000000000000000000000000000000815250815250600c906006620004e2929190620008bd565b506040518060c001604052806040518060400160405280600381526020017f726564000000000000000000000000000000000000000000000000000000000081525081526020016040518060400160405280600781526020017f233038433241380000000000000000000000000000000000000000000000000081525081526020016040518060400160405280600581526020017f626c61636b00000000000000000000000000000000000000000000000000000081525081526020016040518060400160405280600681526020017f79656c6c6f77000000000000000000000000000000000000000000000000000081525081526020016040518060400160405280600481526020017f626c75650000000000000000000000000000000000000000000000000000000081525081526020016040518060400160405280600581526020017f677265656e000000000000000000000000000000000000000000000000000000815250815250600d90600662000660929190620008bd565b503480156200066e57600080fd5b506040518060400160405280600981526020017f5371756172654e465400000000000000000000000000000000000000000000008152506040518060400160405280600681526020017f53515541524500000000000000000000000000000000000000000000000000008152508160009080519060200190620006f39291906200082c565b5080600190805190602001906200070c9291906200082c565b5050506200075a6040518060400160405280601e81526020017f54686973206973206d79204e465420636f6e74726163742e2057686f612100008152506200076060201b6200127f1760201c565b62000ade565b6200080081604051602401620007779190620009f2565b6040516020818303038152906040527f41304fac000000000000000000000000000000000000000000000000000000007bffffffffffffffffffffffffffffffffffffffffffffffffffffffff19166020820180517bffffffffffffffffffffffffffffffffffffffffffffffffffffffff83818316178352505050506200080360201b60201c565b50565b60008151905060006a636f6e736f6c652e6c6f679050602083016000808483855afa5050505050565b8280546200083a9062000a68565b90600052602060002090601f0160209004810192826200085e5760008555620008aa565b82601f106200087957805160ff1916838001178555620008aa565b82800160010185558215620008aa579182015b82811115620008a95782518255916020019190600101906200088c565b5b509050620008b9919062000924565b5090565b82805482825590600052602060002090810192821562000911579160200282015b8281111562000910578251829080519060200190620008ff9291906200082c565b5091602001919060010190620008de565b5b50905062000920919062000943565b5090565b5b808211156200093f57600081600090555060010162000925565b5090565b5b808211156200096757600081816200095d91906200096b565b5060010162000944565b5090565b508054620009799062000a68565b6000825580601f106200098d5750620009ae565b601f016020900490600052602060002090810190620009ad919062000924565b5b50565b6000620009be8262000a16565b620009ca818562000a21565b9350620009dc81856020860162000a32565b620009e78162000acd565b840191505092915050565b6000602082019050818103600083015262000a0e8184620009b1565b905092915050565b600081519050919050565b600082825260208201905092915050565b60005b8381101562000a5257808201518184015260208101905062000a35565b8381111562000a62576000848401525b50505050565b6000600282049050600182168062000a8157607f821691505b6020821081141562000a985762000a9762000a9e565b5b50919050565b7f4e487b7100000000000000000000000000000000000000000000000000000000600052602260045260246000fd5b6000601f19601f8301169050919050565b613c118062000aee6000396000f3fe608060405234801561001057600080fd5b50600436106101215760003560e01c80636352211e116100ad578063b88d4fde11610071578063b88d4fde14610340578063c575757a1461035c578063c87b56dd1461038c578063de9d132f146103bc578063e985e9c5146103c657610121565b80636352211e1461027657806370a08231146102a657806395d89b41146102d6578063a22cb465146102f4578063b187301f1461031057610121565b8063095ea7b3116100f4578063095ea7b3146101c257806323b872dd146101de5780632de38d68146101fa57806342842e0e1461022a578063514dc8c61461024657610121565b806301ffc9a714610126578063060475901461015657806306fdde0314610174578063081812fc14610192575b600080fd5b610140600480360381019061013b919061267f565b6103f6565b60405161014d9190612e23565b60405180910390f35b61015e6104d8565b60405161016b919061309e565b60405180910390f35b61017c6104ee565b6040516101899190612e3e565b60405180910390f35b6101ac60048036038101906101a791906126d1565b610580565b6040516101b99190612d93565b60405180910390f35b6101dc60048036038101906101d79190612643565b610605565b005b6101f860048036038101906101f3919061253d565b61071d565b005b610214600480360381019061020f91906126d1565b61077d565b6040516102219190612e3e565b60405180910390f35b610244600480360381019061023f919061253d565b61089b565b005b610260600480360381019061025b91906126d1565b6108bb565b60405161026d9190612e3e565b60405180910390f35b610290600480360381019061028b91906126d1565b6109d9565b60405161029d9190612d93565b60405180910390f35b6102c060048036038101906102bb91906124d8565b610a8b565b6040516102cd919061309e565b60405180910390f35b6102de610b43565b6040516102eb9190612e3e565b60405180910390f35b61030e60048036038101906103099190612607565b610bd5565b005b61032a600480360381019061032591906126d1565b610beb565b6040516103379190612e3e565b60405180910390f35b61035a6004803603810190610355919061258c565b610d09565b005b610376600480360381019061037191906126d1565b610d6b565b6040516103839190612e3e565b60405180910390f35b6103a660048036038101906103a191906126d1565b610e89565b6040516103b39190612e3e565b60405180910390f35b6103c4610fdb565b005b6103e060048036038101906103db9190612501565b6111eb565b6040516103ed9190612e23565b60405180910390f35b60007f80ac58cd000000000000000000000000000000000000000000000000000000007bffffffffffffffffffffffffffffffffffffffffffffffffffffffff1916827bffffffffffffffffffffffffffffffffffffffffffffffffffffffff191614806104c157507f5b5e139f000000000000000000000000000000000000000000000000000000007bffffffffffffffffffffffffffffffffffffffffffffffffffffffff1916827bffffffffffffffffffffffffffffffffffffffffffffffffffffffff1916145b806104d157506104d082611318565b5b9050919050565b6000806104e56007611382565b90508091505090565b6060600080546104fd90613332565b80601f016020809104026020016040519081016040528092919081815260200182805461052990613332565b80156105765780601f1061054b57610100808354040283529160200191610576565b820191906000526020600020905b81548152906001019060200180831161055957829003601f168201915b5050505050905090565b600061058b82611390565b6105ca576040517f08c379a00000000000000000000000000000000000000000000000000000000081526004016105c190612ffe565b60405180910390fd5b6004600083815260200190815260200160002060009054906101000a900473ffffffffffffffffffffffffffffffffffffffff169050919050565b6000610610826109d9565b90508073ffffffffffffffffffffffffffffffffffffffff168373ffffffffffffffffffffffffffffffffffffffff161415610681576040517f08c379a00000000000000000000000000000000000000000000000000000000081526004016106789061305e565b60405180910390fd5b8073ffffffffffffffffffffffffffffffffffffffff166106a06113fc565b73ffffffffffffffffffffffffffffffffffffffff1614806106cf57506106ce816106c96113fc565b6111eb565b5b61070e576040517f08c379a000000000000000000000000000000000000000000000000000000000815260040161070590612f3e565b60405180910390fd5b6107188383611404565b505050565b61072e6107286113fc565b826114bd565b61076d576040517f08c379a00000000000000000000000000000000000000000000000000000000081526004016107649061307e565b60405180910390fd5b61077883838361159b565b505050565b606060006107b161078d846117f7565b60405160200161079d9190612d2d565b6040516020818303038152906040526119a4565b9050600a80549050816107c491906133de565b9050600a8181548110610800577f4e487b7100000000000000000000000000000000000000000000000000000000600052603260045260246000fd5b90600052602060002001805461081590613332565b80601f016020809104026020016040519081016040528092919081815260200182805461084190613332565b801561088e5780601f106108635761010080835404028352916020019161088e565b820191906000526020600020905b81548152906001019060200180831161087157829003601f168201915b5050505050915050919050565b6108b683838360405180602001604052806000815250610d09565b505050565b606060006108ef6108cb846117f7565b6040516020016108db9190612d71565b6040516020818303038152906040526119a4565b9050600d805490508161090291906133de565b9050600d818154811061093e577f4e487b7100000000000000000000000000000000000000000000000000000000600052603260045260246000fd5b90600052602060002001805461095390613332565b80601f016020809104026020016040519081016040528092919081815260200182805461097f90613332565b80156109cc5780601f106109a1576101008083540402835291602001916109cc565b820191906000526020600020905b8154815290600101906020018083116109af57829003601f168201915b5050505050915050919050565b6000806002600084815260200190815260200160002060009054906101000a900473ffffffffffffffffffffffffffffffffffffffff169050600073ffffffffffffffffffffffffffffffffffffffff168173ffffffffffffffffffffffffffffffffffffffff161415610a82576040517f08c379a0000000000000000000000000000000000000000000000000000000008152600401610a7990612f7e565b60405180910390fd5b80915050919050565b60008073ffffffffffffffffffffffffffffffffffffffff168273ffffffffffffffffffffffffffffffffffffffff161415610afc576040517f08c379a0000000000000000000000000000000000000000000000000000000008152600401610af390612f5e565b60405180910390fd5b600360008373ffffffffffffffffffffffffffffffffffffffff1673ffffffffffffffffffffffffffffffffffffffff168152602001908152602001600020549050919050565b606060018054610b5290613332565b80601f0160208091040260200160405190810160405280929190818152602001828054610b7e90613332565b8015610bcb5780601f10610ba057610100808354040283529160200191610bcb565b820191906000526020600020905b815481529060010190602001808311610bae57829003601f168201915b5050505050905090565b610be7610be06113fc565b83836119d7565b5050565b60606000610c1f610bfb846117f7565b604051602001610c0b9190612d0b565b6040516020818303038152906040526119a4565b9050600b8054905081610c3291906133de565b9050600b8181548110610c6e577f4e487b7100000000000000000000000000000000000000000000000000000000600052603260045260246000fd5b906000526020600020018054610c8390613332565b80601f0160208091040260200160405190810160405280929190818152602001828054610caf90613332565b8015610cfc5780601f10610cd157610100808354040283529160200191610cfc565b820191906000526020600020905b815481529060010190602001808311610cdf57829003601f168201915b5050505050915050919050565b610d1a610d146113fc565b836114bd565b610d59576040517f08c379a0000000000000000000000000000000000000000000000000000000008152600401610d509061307e565b60405180910390fd5b610d6584848484611b44565b50505050565b60606000610d9f610d7b846117f7565b604051602001610d8b9190612ce9565b6040516020818303038152906040526119a4565b9050600c8054905081610db291906133de565b9050600c8181548110610dee577f4e487b7100000000000000000000000000000000000000000000000000000000600052603260045260246000fd5b906000526020600020018054610e0390613332565b80601f0160208091040260200160405190810160405280929190818152602001828054610e2f90613332565b8015610e7c5780601f10610e5157610100808354040283529160200191610e7c565b820191906000526020600020905b815481529060010190602001808311610e5f57829003601f168201915b5050505050915050919050565b6060610e9482611390565b610ed3576040517f08c379a0000000000000000000000000000000000000000000000000000000008152600401610eca90612fde565b60405180910390fd5b6000600660008481526020019081526020016000208054610ef390613332565b80601f0160208091040260200160405190810160405280929190818152602001828054610f1f90613332565b8015610f6c5780601f10610f4157610100808354040283529160200191610f6c565b820191906000526020600020905b815481529060010190602001808311610f4f57829003601f168201915b505050505090506000610f7d611ba0565b9050600081511415610f93578192505050610fd6565b600082511115610fc8578082604051602001610fb0929190612bee565b60405160208183030381529060405292505050610fd6565b610fd184611bb7565b925050505b919050565b6000610fe76007611382565b90506000610ff48261077d565b9050600061100183610beb565b9050600061100e84610d6b565b9050600083838360405160200161102793929190612c12565b60405160208183030381529060405290506000611043866108bb565b905060006008826009856040516020016110609493929190612c43565b604051602081830303815290604052905060006110bb8461108c60018b6110879190613167565b6117f7565b61109585611c5e565b6040516020016110a793929190612c8c565b604051602081830303815290604052611c5e565b90506000816040516020016110d09190612d4f565b604051602081830303815290604052905061111f6040518060400160405280601581526020017f0a2d2d2d2d2d2d2d2d2d2d2d2d2d2d2d2d2d2d2d2d000000000000000000000081525061127f565b6111288161127f565b6111666040518060400160405280601581526020017f2d2d2d2d2d2d2d2d2d2d2d2d2d2d2d2d2d2d2d2d0a000000000000000000000081525061127f565b611170338a611e1c565b61117a8982611e3a565b6111846007611eae565b6111a7604051806060016040528060258152602001613b77602591398a33611ec4565b7febb98688741ffa4c7589bf325de30cf7becb63de567842e1ccdb6cb949fdc82c338a6040516111d8929190612dfa565b60405180910390a1505050505050505050565b6000600560008473ffffffffffffffffffffffffffffffffffffffff1673ffffffffffffffffffffffffffffffffffffffff16815260200190815260200160002060008373ffffffffffffffffffffffffffffffffffffffff1673ffffffffffffffffffffffffffffffffffffffff16815260200190815260200160002060009054906101000a900460ff16905092915050565b611315816040516024016112939190612e3e565b6040516020818303038152906040527f41304fac000000000000000000000000000000000000000000000000000000007bffffffffffffffffffffffffffffffffffffffffffffffffffffffff19166020820180517bffffffffffffffffffffffffffffffffffffffffffffffffffffffff8381831617835250505050611f63565b50565b60007f01ffc9a7000000000000000000000000000000000000000000000000000000007bffffffffffffffffffffffffffffffffffffffffffffffffffffffff1916827bffffffffffffffffffffffffffffffffffffffffffffffffffffffff1916149050919050565b600081600001549050919050565b60008073ffffffffffffffffffffffffffffffffffffffff166002600084815260200190815260200160002060009054906101000a900473ffffffffffffffffffffffffffffffffffffffff1673ffffffffffffffffffffffffffffffffffffffff1614159050919050565b600033905090565b816004600083815260200190815260200160002060006101000a81548173ffffffffffffffffffffffffffffffffffffffff021916908373ffffffffffffffffffffffffffffffffffffffff160217905550808273ffffffffffffffffffffffffffffffffffffffff16611477836109d9565b73ffffffffffffffffffffffffffffffffffffffff167f8c5be1e5ebec7d5bd14f71427d1e84f3dd0314c0f7b2291e5b200ac8c7c3b92560405160405180910390a45050565b60006114c882611390565b611507576040517f08c379a00000000000000000000000000000000000000000000000000000000081526004016114fe90612f1e565b60405180910390fd5b6000611512836109d9565b90508073ffffffffffffffffffffffffffffffffffffffff168473ffffffffffffffffffffffffffffffffffffffff16148061158157508373ffffffffffffffffffffffffffffffffffffffff1661156984610580565b73ffffffffffffffffffffffffffffffffffffffff16145b80611592575061159181856111eb565b5b91505092915050565b8273ffffffffffffffffffffffffffffffffffffffff166115bb826109d9565b73ffffffffffffffffffffffffffffffffffffffff1614611611576040517f08c379a00000000000000000000000000000000000000000000000000000000081526004016116089061301e565b60405180910390fd5b600073ffffffffffffffffffffffffffffffffffffffff168273ffffffffffffffffffffffffffffffffffffffff161415611681576040517f08c379a000000000000000000000000000000000000000000000000000000000815260040161167890612ede565b60405180910390fd5b61168c838383611f8c565b611697600082611404565b6001600360008573ffffffffffffffffffffffffffffffffffffffff1673ffffffffffffffffffffffffffffffffffffffff16815260200190815260200160002060008282546116e79190613248565b925050819055506001600360008473ffffffffffffffffffffffffffffffffffffffff1673ffffffffffffffffffffffffffffffffffffffff168152602001908152602001600020600082825461173e9190613167565b92505081905550816002600083815260200190815260200160002060006101000a81548173ffffffffffffffffffffffffffffffffffffffff021916908373ffffffffffffffffffffffffffffffffffffffff160217905550808273ffffffffffffffffffffffffffffffffffffffff168473ffffffffffffffffffffffffffffffffffffffff167fddf252ad1be2c89b69c2b068fc378daa952ba7f163c4a11628f55a4df523b3ef60405160405180910390a4505050565b6060600082141561183f576040518060400160405280600181526020017f3000000000000000000000000000000000000000000000000000000000000000815250905061199f565b600082905060005b6000821461187157808061185a90613395565b915050600a8261186a91906131bd565b9150611847565b60008167ffffffffffffffff8111156118b3577f4e487b7100000000000000000000000000000000000000000000000000000000600052604160045260246000fd5b6040519080825280601f01601f1916602001820160405280156118e55781602001600182028036833780820191505090505b5090505b60008514611998576001826118fe9190613248565b9150600a8561190d91906133de565b60306119199190613167565b60f81b818381518110611955577f4e487b7100000000000000000000000000000000000000000000000000000000600052603260045260246000fd5b60200101907effffffffffffffffffffffffffffffffffffffffffffffffffffffffffffff1916908160001a905350600a8561199191906131bd565b94506118e9565b8093505050505b919050565b6000816040516020016119b79190612bd7565b6040516020818303038152906040528051906020012060001c9050919050565b8173ffffffffffffffffffffffffffffffffffffffff168373ffffffffffffffffffffffffffffffffffffffff161415611a46576040517f08c379a0000000000000000000000000000000000000000000000000000000008152600401611a3d90612efe565b60405180910390fd5b80600560008573ffffffffffffffffffffffffffffffffffffffff1673ffffffffffffffffffffffffffffffffffffffff16815260200190815260200160002060008473ffffffffffffffffffffffffffffffffffffffff1673ffffffffffffffffffffffffffffffffffffffff16815260200190815260200160002060006101000a81548160ff0219169083151502179055508173ffffffffffffffffffffffffffffffffffffffff168373ffffffffffffffffffffffffffffffffffffffff167f17307eab39ab6107e8899845ad3d59bd9653f200f220920489ca2b5937696c3183604051611b379190612e23565b60405180910390a3505050565b611b4f84848461159b565b611b5b84848484611f91565b611b9a576040517f08c379a0000000000000000000000000000000000000000000000000000000008152600401611b9190612e9e565b60405180910390fd5b50505050565b606060405180602001604052806000815250905090565b6060611bc282611390565b611c01576040517f08c379a0000000000000000000000000000000000000000000000000000000008152600401611bf89061303e565b60405180910390fd5b6000611c0b611ba0565b90506000815111611c2b5760405180602001604052806000815250611c56565b80611c35846117f7565b604051602001611c46929190612bee565b6040516020818303038152906040525b915050919050565b60606000825190506000811415611c875760405180602001604052806000815250915050611e17565b60006003600283611c989190613167565b611ca291906131bd565b6004611cae91906131ee565b90506000602082611cbf9190613167565b67ffffffffffffffff811115611cfe577f4e487b7100000000000000000000000000000000000000000000000000000000600052604160045260246000fd5b6040519080825280601f01601f191660200182016040528015611d305781602001600182028036833780820191505090505b5090506000604051806060016040528060408152602001613b9c604091399050600181016020830160005b86811015611dd45760038101905062ffffff818a015116603f8160121c168401518060081b905060ff603f83600c1c1686015116810190508060081b905060ff603f8360061c1686015116810190508060081b905060ff603f831686015116810190508060e01b90508084526004840193505050611d5b565b506003860660018114611dee5760028114611dfe57611e09565b613d3d60f01b6002830352611e09565b603d60f81b60018303525b508484525050819450505050505b919050565b611e36828260405180602001604052806000815250612128565b5050565b611e4382611390565b611e82576040517f08c379a0000000000000000000000000000000000000000000000000000000008152600401611e7990612f9e565b60405180910390fd5b80600660008481526020019081526020016000209080519060200190611ea9929190612364565b505050565b6001816000016000828254019250508190555050565b611f5e838383604051602401611edc93929190612e60565b6040516020818303038152906040527fe3849f79000000000000000000000000000000000000000000000000000000007bffffffffffffffffffffffffffffffffffffffffffffffffffffffff19166020820180517bffffffffffffffffffffffffffffffffffffffffffffffffffffffff8381831617835250505050611f63565b505050565b60008151905060006a636f6e736f6c652e6c6f679050602083016000808483855afa5050505050565b505050565b6000611fb28473ffffffffffffffffffffffffffffffffffffffff16612183565b1561211b578373ffffffffffffffffffffffffffffffffffffffff1663150b7a02611fdb6113fc565b8786866040518563ffffffff1660e01b8152600401611ffd9493929190612dae565b602060405180830381600087803b15801561201757600080fd5b505af192505050801561204857506040513d601f19601f8201168201806040525081019061204591906126a8565b60015b6120cb573d8060008114612078576040519150601f19603f3d011682016040523d82523d6000602084013e61207d565b606091505b506000815114156120c3576040517f08c379a00000000000000000000000000000000000000000000000000000000081526004016120ba90612e9e565b60405180910390fd5b805181602001fd5b63150b7a0260e01b7bffffffffffffffffffffffffffffffffffffffffffffffffffffffff1916817bffffffffffffffffffffffffffffffffffffffffffffffffffffffff191614915050612120565b600190505b949350505050565b6121328383612196565b61213f6000848484611f91565b61217e576040517f08c379a000000000000000000000000000000000000000000000000000000000815260040161217590612e9e565b60405180910390fd5b505050565b600080823b905060008111915050919050565b600073ffffffffffffffffffffffffffffffffffffffff168273ffffffffffffffffffffffffffffffffffffffff161415612206576040517f08c379a00000000000000000000000000000000000000000000000000000000081526004016121fd90612fbe565b60405180910390fd5b61220f81611390565b1561224f576040517f08c379a000000000000000000000000000000000000000000000000000000000815260040161224690612ebe565b60405180910390fd5b61225b60008383611f8c565b6001600360008473ffffffffffffffffffffffffffffffffffffffff1673ffffffffffffffffffffffffffffffffffffffff16815260200190815260200160002060008282546122ab9190613167565b92505081905550816002600083815260200190815260200160002060006101000a81548173ffffffffffffffffffffffffffffffffffffffff021916908373ffffffffffffffffffffffffffffffffffffffff160217905550808273ffffffffffffffffffffffffffffffffffffffff16600073ffffffffffffffffffffffffffffffffffffffff167fddf252ad1be2c89b69c2b068fc378daa952ba7f163c4a11628f55a4df523b3ef60405160405180910390a45050565b82805461237090613332565b90600052602060002090601f01602090048101928261239257600085556123d9565b82601f106123ab57805160ff19168380011785556123d9565b828001600101855582156123d9579182015b828111156123d85782518255916020019190600101906123bd565b5b5090506123e691906123ea565b5090565b5b808211156124035760008160009055506001016123eb565b5090565b600061241a612415846130de565b6130b9565b90508281526020810184848401111561243257600080fd5b61243d8482856132f0565b509392505050565b60008135905061245481613b1a565b92915050565b60008135905061246981613b31565b92915050565b60008135905061247e81613b48565b92915050565b60008151905061249381613b48565b92915050565b600082601f8301126124aa57600080fd5b81356124ba848260208601612407565b91505092915050565b6000813590506124d281613b5f565b92915050565b6000602082840312156124ea57600080fd5b60006124f884828501612445565b91505092915050565b6000806040838503121561251457600080fd5b600061252285828601612445565b925050602061253385828601612445565b9150509250929050565b60008060006060848603121561255257600080fd5b600061256086828701612445565b935050602061257186828701612445565b9250506040612582868287016124c3565b9150509250925092565b600080600080608085870312156125a257600080fd5b60006125b087828801612445565b94505060206125c187828801612445565b93505060406125d2878288016124c3565b925050606085013567ffffffffffffffff8111156125ef57600080fd5b6125fb87828801612499565b91505092959194509250565b6000806040838503121561261a57600080fd5b600061262885828601612445565b92505060206126398582860161245a565b9150509250929050565b6000806040838503121561265657600080fd5b600061266485828601612445565b9250506020612675858286016124c3565b9150509250929050565b60006020828403121561269157600080fd5b600061269f8482850161246f565b91505092915050565b6000602082840312156126ba57600080fd5b60006126c884828501612484565b91505092915050565b6000602082840312156126e357600080fd5b60006126f1848285016124c3565b91505092915050565b6127038161327c565b82525050565b6127128161328e565b82525050565b600061272382613124565b61272d818561313a565b935061273d8185602086016132ff565b612746816134cb565b840191505092915050565b600061275c8261312f565b612766818561314b565b93506127768185602086016132ff565b61277f816134cb565b840191505092915050565b60006127958261312f565b61279f818561315c565b93506127af8185602086016132ff565b80840191505092915050565b600081546127c881613332565b6127d2818661315c565b945060018216600081146127ed57600181146127fe57612831565b60ff19831686528186019350612831565b6128078561310f565b60005b838110156128295781548189015260018201915060208101905061280a565b838801955050505b50505092915050565b600061284760328361314b565b9150612852826134dc565b604082019050919050565b600061286a600b8361315c565b91506128758261352b565b600b82019050919050565b600061288d601c8361314b565b915061289882613554565b602082019050919050565b60006128b0600a8361315c565b91506128bb8261357d565b600a82019050919050565b60006128d360148361315c565b91506128de826135a6565b601482019050919050565b60006128f660248361314b565b9150612901826135cf565b604082019050919050565b600061291960198361314b565b91506129248261361e565b602082019050919050565b600061293c600b8361315c565b915061294782613647565b600b82019050919050565b600061295f602c8361314b565b915061296a82613670565b604082019050919050565b6000612982600d8361315c565b915061298d826136bf565b600d82019050919050565b60006129a560388361314b565b91506129b0826136e8565b604082019050919050565b60006129c8602a8361314b565b91506129d382613737565b604082019050919050565b60006129eb60298361314b565b91506129f682613786565b604082019050919050565b6000612a0e602e8361314b565b9150612a19826137d5565b604082019050919050565b6000612a3160028361315c565b9150612a3c82613824565b600282019050919050565b6000612a5460208361314b565b9150612a5f8261384d565b602082019050919050565b6000612a7760318361314b565b9150612a8282613876565b604082019050919050565b6000612a9a602c8361314b565b9150612aa5826138c5565b604082019050919050565b6000612abd60298361314b565b9150612ac882613914565b604082019050919050565b6000612ae0602f8361314b565b9150612aeb82613963565b604082019050919050565b6000612b03602b8361315c565b9150612b0e826139b2565b602b82019050919050565b6000612b2660218361314b565b9150612b3182613a01565b604082019050919050565b6000612b49600a8361315c565b9150612b5482613a50565b600a82019050919050565b6000612b6c601d8361315c565b9150612b7782613a79565b601d82019050919050565b6000612b8f60318361314b565b9150612b9a82613aa2565b604082019050919050565b6000612bb260058361315c565b9150612bbd82613af1565b600582019050919050565b612bd1816132e6565b82525050565b6000612be3828461278a565b915081905092915050565b6000612bfa828561278a565b9150612c06828461278a565b91508190509392505050565b6000612c1e828661278a565b9150612c2a828561278a565b9150612c36828461278a565b9150819050949350505050565b6000612c4f82876127bb565b9150612c5b828661278a565b9150612c6782856127bb565b9150612c73828461278a565b9150612c7e82612975565b915081905095945050505050565b6000612c978261285d565b9150612ca3828661278a565b9150612cae826128c6565b9150612cba828561278a565b9150612cc582612af6565b9150612cd1828461278a565b9150612cdc82612a24565b9150819050949350505050565b6000612cf4826128a3565b9150612d00828461278a565b915081905092915050565b6000612d168261292f565b9150612d22828461278a565b915081905092915050565b6000612d3882612b3c565b9150612d44828461278a565b915081905092915050565b6000612d5a82612b5f565b9150612d66828461278a565b915081905092915050565b6000612d7c82612ba5565b9150612d88828461278a565b915081905092915050565b6000602082019050612da860008301846126fa565b92915050565b6000608082019050612dc360008301876126fa565b612dd060208301866126fa565b612ddd6040830185612bc8565b8181036060830152612def8184612718565b905095945050505050565b6000604082019050612e0f60008301856126fa565b612e1c6020830184612bc8565b9392505050565b6000602082019050612e386000830184612709565b92915050565b60006020820190508181036000830152612e588184612751565b905092915050565b60006060820190508181036000830152612e7a8186612751565b9050612e896020830185612bc8565b612e9660408301846126fa565b949350505050565b60006020820190508181036000830152612eb78161283a565b9050919050565b60006020820190508181036000830152612ed781612880565b9050919050565b60006020820190508181036000830152612ef7816128e9565b9050919050565b60006020820190508181036000830152612f178161290c565b9050919050565b60006020820190508181036000830152612f3781612952565b9050919050565b60006020820190508181036000830152612f5781612998565b9050919050565b60006020820190508181036000830152612f77816129bb565b9050919050565b60006020820190508181036000830152612f97816129de565b9050919050565b60006020820190508181036000830152612fb781612a01565b9050919050565b60006020820190508181036000830152612fd781612a47565b9050919050565b60006020820190508181036000830152612ff781612a6a565b9050919050565b6000602082019050818103600083015261301781612a8d565b9050919050565b6000602082019050818103600083015261303781612ab0565b9050919050565b6000602082019050818103600083015261305781612ad3565b9050919050565b6000602082019050818103600083015261307781612b19565b9050919050565b6000602082019050818103600083015261309781612b82565b9050919050565b60006020820190506130b36000830184612bc8565b92915050565b60006130c36130d4565b90506130cf8282613364565b919050565b6000604051905090565b600067ffffffffffffffff8211156130f9576130f861349c565b5b613102826134cb565b9050602081019050919050565b60008190508160005260206000209050919050565b600081519050919050565b600081519050919050565b600082825260208201905092915050565b600082825260208201905092915050565b600081905092915050565b6000613172826132e6565b915061317d836132e6565b9250827fffffffffffffffffffffffffffffffffffffffffffffffffffffffffffffffff038211156131b2576131b161340f565b5b828201905092915050565b60006131c8826132e6565b91506131d3836132e6565b9250826131e3576131e261343e565b5b828204905092915050565b60006131f9826132e6565b9150613204836132e6565b9250817fffffffffffffffffffffffffffffffffffffffffffffffffffffffffffffffff048311821515161561323d5761323c61340f565b5b828202905092915050565b6000613253826132e6565b915061325e836132e6565b9250828210156132715761327061340f565b5b828203905092915050565b6000613287826132c6565b9050919050565b60008115159050919050565b60007fffffffff0000000000000000000000000000000000000000000000000000000082169050919050565b600073ffffffffffffffffffffffffffffffffffffffff82169050919050565b6000819050919050565b82818337600083830152505050565b60005b8381101561331d578082015181840152602081019050613302565b8381111561332c576000848401525b50505050565b6000600282049050600182168061334a57607f821691505b6020821081141561335e5761335d61346d565b5b50919050565b61336d826134cb565b810181811067ffffffffffffffff8211171561338c5761338b61349c565b5b80604052505050565b60006133a0826132e6565b91507fffffffffffffffffffffffffffffffffffffffffffffffffffffffffffffffff8214156133d3576133d261340f565b5b600182019050919050565b60006133e9826132e6565b91506133f4836132e6565b9250826134045761340361343e565b5b828206905092915050565b7f4e487b7100000000000000000000000000000000000000000000000000000000600052601160045260246000fd5b7f4e487b7100000000000000000000000000000000000000000000000000000000600052601260045260246000fd5b7f4e487b7100000000000000000000000000000000000000000000000000000000600052602260045260246000fd5b7f4e487b7100000000000000000000000000000000000000000000000000000000600052604160045260246000fd5b6000601f19601f8301169050919050565b7f4552433732313a207472616e7366657220746f206e6f6e20455243373231526560008201527f63656976657220696d706c656d656e7465720000000000000000000000000000602082015250565b7f7b20226e616d65223a2022000000000000000000000000000000000000000000600082015250565b7f4552433732313a20746f6b656e20616c7265616479206d696e74656400000000600082015250565b7f54484952445f574f524400000000000000000000000000000000000000000000600082015250565b7f222c20226465736372697074696f6e22203a2022000000000000000000000000600082015250565b7f4552433732313a207472616e7366657220746f20746865207a65726f2061646460008201527f7265737300000000000000000000000000000000000000000000000000000000602082015250565b7f4552433732313a20617070726f766520746f2063616c6c657200000000000000600082015250565b7f5345434f4e445f574f5244000000000000000000000000000000000000000000600082015250565b7f4552433732313a206f70657261746f7220717565727920666f72206e6f6e657860008201527f697374656e7420746f6b656e0000000000000000000000000000000000000000602082015250565b7f3c2f746578743e3c2f7376673e00000000000000000000000000000000000000600082015250565b7f4552433732313a20617070726f76652063616c6c6572206973206e6f74206f7760008201527f6e6572206e6f7220617070726f76656420666f7220616c6c0000000000000000602082015250565b7f4552433732313a2062616c616e636520717565727920666f7220746865207a6560008201527f726f206164647265737300000000000000000000000000000000000000000000602082015250565b7f4552433732313a206f776e657220717565727920666f72206e6f6e657869737460008201527f656e7420746f6b656e0000000000000000000000000000000000000000000000602082015250565b7f45524337323155524953746f726167653a2055524920736574206f66206e6f6e60008201527f6578697374656e7420746f6b656e000000000000000000000000000000000000602082015250565b7f227d000000000000000000000000000000000000000000000000000000000000600082015250565b7f4552433732313a206d696e7420746f20746865207a65726f2061646472657373600082015250565b7f45524337323155524953746f726167653a2055524920717565727920666f722060008201527f6e6f6e6578697374656e7420746f6b656e000000000000000000000000000000602082015250565b7f4552433732313a20617070726f76656420717565727920666f72206e6f6e657860008201527f697374656e7420746f6b656e0000000000000000000000000000000000000000602082015250565b7f4552433732313a207472616e73666572206f6620746f6b656e2074686174206960008201527f73206e6f74206f776e0000000000000000000000000000000000000000000000602082015250565b7f4552433732314d657461646174613a2055524920717565727920666f72206e6f60008201527f6e6578697374656e7420746f6b656e0000000000000000000000000000000000602082015250565b7f2f35222c2022696d61676522203a202022646174613a696d6167652f7376672b60008201527f786d6c3b6261736536342c000000000000000000000000000000000000000000602082015250565b7f4552433732313a20617070726f76616c20746f2063757272656e74206f776e6560008201527f7200000000000000000000000000000000000000000000000000000000000000602082015250565b7f46495253545f574f524400000000000000000000000000000000000000000000600082015250565b7f646174613a6170706c69636174696f6e2f6a736f6e3b6261736536342c000000600082015250565b7f4552433732313a207472616e736665722063616c6c6572206973206e6f74206f60008201527f776e6572206e6f7220617070726f766564000000000000000000000000000000602082015250565b7f434f4c4f52000000000000000000000000000000000000000000000000000000600082015250565b613b238161327c565b8114613b2e57600080fd5b50565b613b3a8161328e565b8114613b4557600080fd5b50565b613b518161329a565b8114613b5c57600080fd5b50565b613b68816132e6565b8114613b7357600080fd5b5056fe416e204e465420772f20494420257320686173206265656e206d696e74656420746f2025734142434445464748494a4b4c4d4e4f505152535455565758595a6162636465666768696a6b6c6d6e6f707172737475767778797a303132333435363738392b2fa2646970667358221220dcaaac5eb6258a86d23fb5bf059c5e06eea3ca70374749a9b220997b557db2f764736f6c634300080400333c73766720786d6c6e733d27687474703a2f2f7777772e77332e6f72672f323030302f73766727207072657365727665417370656374526174696f3d27784d696e594d696e206d656574272076696577426f783d273020302033353020333530273e3c7374796c653e2e62617365207b2066696c6c3a2077686974653b20666f6e742d66616d696c793a2073657269663b20666f6e742d73697a653a20323470783b207d3c2f7374796c653e3c726563742077696474683d273130302527206865696768743d2731303025272066696c6c3d27272f3e3c7465787420783d273530252720793d273530252720636c6173733d27626173652720646f6d696e616e742d626173656c696e653d276d6964646c652720746578742d616e63686f723d276d6964646c65273e",
  "linkReferences": {},
  "deployedLinkReferences": {}
}