{
  "_format": "hh-sol-artifact-1",
  "contractName": "MyEpicNFT",
  "sourceName": "contracts/MyEpicNFT.sol",
  "abi": [
    {
      "inputs": [],
      "stateMutability": "nonpayable",
      "type": "constructor"
    },
    {
      "anonymous": false,
      "inputs": [
        {
          "indexed": true,
          "internalType": "address",
          "name": "owner",
          "type": "address"
        },
        {
          "indexed": true,
          "internalType": "address",
          "name": "approved",
          "type": "address"
        },
        {
          "indexed": true,
          "internalType": "uint256",
          "name": "tokenId",
          "type": "uint256"
        }
      ],
      "name": "Approval",
      "type": "event"
    },
    {
      "anonymous": false,
      "inputs": [
        {
          "indexed": true,
          "internalType": "address",
          "name": "owner",
          "type": "address"
        },
        {
          "indexed": true,
          "internalType": "address",
          "name": "operator",
          "type": "address"
        },
        {
          "indexed": false,
          "internalType": "bool",
          "name": "approved",
          "type": "bool"
        }
      ],
      "name": "ApprovalForAll",
      "type": "event"
    },
    {
      "anonymous": false,
      "inputs": [
        {
          "indexed": false,
          "internalType": "address",
          "name": "sender",
          "type": "address"
        },
        {
          "indexed": false,
          "internalType": "uint256",
          "name": "tokenId",
          "type": "uint256"
        }
      ],
      "name": "NewEpicNFTMinted",
      "type": "event"
    },
    {
      "anonymous": false,
      "inputs": [
        {
          "indexed": true,
          "internalType": "address",
          "name": "from",
          "type": "address"
        },
        {
          "indexed": true,
          "internalType": "address",
          "name": "to",
          "type": "address"
        },
        {
          "indexed": true,
          "internalType": "uint256",
          "name": "tokenId",
          "type": "uint256"
        }
      ],
      "name": "Transfer",
      "type": "event"
    },
    {
      "inputs": [
        {
          "internalType": "address",
          "name": "to",
          "type": "address"
        },
        {
          "internalType": "uint256",
          "name": "tokenId",
          "type": "uint256"
        }
      ],
      "name": "approve",
      "outputs": [],
      "stateMutability": "nonpayable",
      "type": "function"
    },
    {
      "inputs": [
        {
          "internalType": "address",
          "name": "owner",
          "type": "address"
        }
      ],
      "name": "balanceOf",
      "outputs": [
        {
          "internalType": "uint256",
          "name": "",
          "type": "uint256"
        }
      ],
      "stateMutability": "view",
      "type": "function"
    },
    {
      "inputs": [
        {
          "internalType": "uint256",
          "name": "tokenId",
          "type": "uint256"
        }
      ],
      "name": "getApproved",
      "outputs": [
        {
          "internalType": "address",
          "name": "",
          "type": "address"
        }
      ],
      "stateMutability": "view",
      "type": "function"
    },
    {
      "inputs": [],
      "name": "getTotalNFTsMintedSoFar",
      "outputs": [
        {
          "internalType": "uint256",
          "name": "",
          "type": "uint256"
        }
      ],
      "stateMutability": "view",
      "type": "function"
    },
    {
      "inputs": [
        {
          "internalType": "address",
          "name": "owner",
          "type": "address"
        },
        {
          "internalType": "address",
          "name": "operator",
          "type": "address"
        }
      ],
      "name": "isApprovedForAll",
      "outputs": [
        {
          "internalType": "bool",
          "name": "",
          "type": "bool"
        }
      ],
      "stateMutability": "view",
      "type": "function"
    },
    {
      "inputs": [],
      "name": "makeAnEpicNFT",
      "outputs": [],
      "stateMutability": "nonpayable",
      "type": "function"
    },
    {
      "inputs": [],
      "name": "name",
      "outputs": [
        {
          "internalType": "string",
          "name": "",
          "type": "string"
        }
      ],
      "stateMutability": "view",
      "type": "function"
    },
    {
      "inputs": [
        {
          "internalType": "uint256",
          "name": "tokenId",
          "type": "uint256"
        }
      ],
      "name": "ownerOf",
      "outputs": [
        {
          "internalType": "address",
          "name": "",
          "type": "address"
        }
      ],
      "stateMutability": "view",
      "type": "function"
    },
    {
      "inputs": [
        {
          "internalType": "uint256",
          "name": "tokenId",
          "type": "uint256"
        }
      ],
      "name": "pickRandomColor",
      "outputs": [
        {
          "internalType": "string",
          "name": "",
          "type": "string"
        }
      ],
      "stateMutability": "view",
      "type": "function"
    },
    {
      "inputs": [
        {
          "internalType": "uint256",
          "name": "tokenId",
          "type": "uint256"
        }
      ],
      "name": "pickRandomFirstWord",
      "outputs": [
        {
          "internalType": "string",
          "name": "",
          "type": "string"
        }
      ],
      "stateMutability": "view",
      "type": "function"
    },
    {
      "inputs": [
        {
          "internalType": "uint256",
          "name": "tokenId",
          "type": "uint256"
        }
      ],
      "name": "pickRandomSecondWord",
      "outputs": [
        {
          "internalType": "string",
          "name": "",
          "type": "string"
        }
      ],
      "stateMutability": "view",
      "type": "function"
    },
    {
      "inputs": [
        {
          "internalType": "uint256",
          "name": "tokenId",
          "type": "uint256"
        }
      ],
      "name": "pickRandomThirdWord",
      "outputs": [
        {
          "internalType": "string",
          "name": "",
          "type": "string"
        }
      ],
      "stateMutability": "view",
      "type": "function"
    },
    {
      "inputs": [
        {
          "internalType": "address",
          "name": "from",
          "type": "address"
        },
        {
          "internalType": "address",
          "name": "to",
          "type": "address"
        },
        {
          "internalType": "uint256",
          "name": "tokenId",
          "type": "uint256"
        }
      ],
      "name": "safeTransferFrom",
      "outputs": [],
      "stateMutability": "nonpayable",
      "type": "function"
    },
    {
      "inputs": [
        {
          "internalType": "address",
          "name": "from",
          "type": "address"
        },
        {
          "internalType": "address",
          "name": "to",
          "type": "address"
        },
        {
          "internalType": "uint256",
          "name": "tokenId",
          "type": "uint256"
        },
        {
          "internalType": "bytes",
          "name": "_data",
          "type": "bytes"
        }
      ],
      "name": "safeTransferFrom",
      "outputs": [],
      "stateMutability": "nonpayable",
      "type": "function"
    },
    {
      "inputs": [
        {
          "internalType": "address",
          "name": "operator",
          "type": "address"
        },
        {
          "internalType": "bool",
          "name": "approved",
          "type": "bool"
        }
      ],
      "name": "setApprovalForAll",
      "outputs": [],
      "stateMutability": "nonpayable",
      "type": "function"
    },
    {
      "inputs": [
        {
          "internalType": "bytes4",
          "name": "interfaceId",
          "type": "bytes4"
        }
      ],
      "name": "supportsInterface",
      "outputs": [
        {
          "internalType": "bool",
          "name": "",
          "type": "bool"
        }
      ],
      "stateMutability": "view",
      "type": "function"
    },
    {
      "inputs": [],
      "name": "symbol",
      "outputs": [
        {
          "internalType": "string",
          "name": "",
          "type": "string"
        }
      ],
      "stateMutability": "view",
      "type": "function"
    },
    {
      "inputs": [
        {
          "internalType": "uint256",
          "name": "tokenId",
          "type": "uint256"
        }
      ],
      "name": "tokenURI",
      "outputs": [
        {
          "internalType": "string",
          "name": "",
          "type": "string"
        }
      ],
      "stateMutability": "view",
      "type": "function"
    },
    {
      "inputs": [
        {
          "internalType": "address",
          "name": "from",
          "type": "address"
        },
        {
          "internalType": "address",
          "name": "to",
          "type": "address"
        },
        {
          "internalType": "uint256",
          "name": "tokenId",
          "type": "uint256"
        }
      ],
      "name": "transferFrom",
      "outputs": [],
      "stateMutability": "nonpayable",
      "type": "function"
    }
  ],
  "bytecode": "0x608060405260405180610100016040528060d38152602001620046fa60d3913960089080519060200190620000369291906200082c565b50604051806080016040528060568152602001620047cd6056913960099080519060200190620000689291906200082c565b506040518060c001604052806040518060400160405280600581526020017f776974747900000000000000000000000000000000000000000000000000000081525081526020016040518060400160405280600781526020017f707269636b6c790000000000000000000000000000000000000000000000000081525081526020016040518060400160405280600b81526020017f6f76657277726f7567687400000000000000000000000000000000000000000081525081526020016040518060400160405280600481526020017f666976650000000000000000000000000000000000000000000000000000000081525081526020016040518060400160405280600481526020017f6c6174650000000000000000000000000000000000000000000000000000000081525081526020016040518060400160405280600781526020017f6469726566756c00000000000000000000000000000000000000000000000000815250815250600a906006620001e6929190620008bd565b506040518060c001604052806040518060400160405280600781526020017f64656c696768740000000000000000000000000000000000000000000000000081525081526020016040518060400160405280600481526020017f646f636b0000000000000000000000000000000000000000000000000000000081525081526020016040518060400160405280600781526020017f6b6e6f77696e670000000000000000000000000000000000000000000000000081525081526020016040518060400160405280600381526020017f746f65000000000000000000000000000000000000000000000000000000000081525081526020016040518060400160405280600581526020017f7363616c6500000000000000000000000000000000000000000000000000000081525081526020016040518060400160405280600581526020017f626c696e6b000000000000000000000000000000000000000000000000000000815250815250600b90600662000364929190620008bd565b506040518060c001604052806040518060400160405280600481526020017f68616c6c0000000000000000000000000000000000000000000000000000000081525081526020016040518060400160405280600d81526020017f6164766572746973656d656e740000000000000000000000000000000000000081525081526020016040518060400160405280600381526020017f6c6965000000000000000000000000000000000000000000000000000000000081525081526020016040518060400160405280600681526020017f64616d616765000000000000000000000000000000000000000000000000000081525081526020016040518060400160405280600481526020017f626f6f6b0000000000000000000000000000000000000000000000000000000081525081526020016040518060400160405280600481526020017f6875676500000000000000000000000000000000000000000000000000000000815250815250600c906006620004e2929190620008bd565b506040518060c001604052806040518060400160405280600381526020017f726564000000000000000000000000000000000000000000000000000000000081525081526020016040518060400160405280600781526020017f233038433241380000000000000000000000000000000000000000000000000081525081526020016040518060400160405280600581526020017f626c61636b00000000000000000000000000000000000000000000000000000081525081526020016040518060400160405280600681526020017f79656c6c6f77000000000000000000000000000000000000000000000000000081525081526020016040518060400160405280600481526020017f626c75650000000000000000000000000000000000000000000000000000000081525081526020016040518060400160405280600581526020017f677265656e000000000000000000000000000000000000000000000000000000815250815250600d90600662000660929190620008bd565b503480156200066e57600080fd5b506040518060400160405280600981526020017f5371756172654e465400000000000000000000000000000000000000000000008152506040518060400160405280600681526020017f53515541524500000000000000000000000000000000000000000000000000008152508160009080519060200190620006f39291906200082c565b5080600190805190602001906200070c9291906200082c565b5050506200075a6040518060400160405280601e81526020017f54686973206973206d79204e465420636f6e74726163742e2057686f612100008152506200076060201b6200127a1760201c565b62000ade565b6200080081604051602401620007779190620009f2565b6040516020818303038152906040527f41304fac000000000000000000000000000000000000000000000000000000007bffffffffffffffffffffffffffffffffffffffffffffffffffffffff19166020820180517bffffffffffffffffffffffffffffffffffffffffffffffffffffffff83818316178352505050506200080360201b60201c565b50565b60008151905060006a636f6e736f6c652e6c6f679050602083016000808483855afa5050505050565b8280546200083a9062000a68565b90600052602060002090601f0160209004810192826200085e5760008555620008aa565b82601f106200087957805160ff1916838001178555620008aa565b82800160010185558215620008aa579182015b82811115620008a95782518255916020019190600101906200088c565b5b509050620008b9919062000924565b5090565b82805482825590600052602060002090810192821562000911579160200282015b8281111562000910578251829080519060200190620008ff9291906200082c565b5091602001919060010190620008de565b5b50905062000920919062000943565b5090565b5b808211156200093f57600081600090555060010162000925565b5090565b5b808211156200096757600081816200095d91906200096b565b5060010162000944565b5090565b508054620009799062000a68565b6000825580601f106200098d5750620009ae565b601f016020900490600052602060002090810190620009ad919062000924565b5b50565b6000620009be8262000a16565b620009ca818562000a21565b9350620009dc81856020860162000a32565b620009e78162000acd565b840191505092915050565b6000602082019050818103600083015262000a0e8184620009b1565b905092915050565b600081519050919050565b600082825260208201905092915050565b60005b8381101562000a5257808201518184015260208101905062000a35565b8381111562000a62576000848401525b50505050565b6000600282049050600182168062000a8157607f821691505b6020821081141562000a985762000a9762000a9e565b5b50919050565b7f4e487b7100000000000000000000000000000000000000000000000000000000600052602260045260246000fd5b6000601f19601f8301169050919050565b613c0c8062000aee6000396000f3fe608060405234801561001057600080fd5b50600436106101215760003560e01c80636352211e116100ad578063b88d4fde11610071578063b88d4fde14610340578063c575757a1461035c578063c87b56dd1461038c578063de9d132f146103bc578063e985e9c5146103c657610121565b80636352211e1461027657806370a08231146102a657806395d89b41146102d6578063a22cb465146102f4578063b187301f1461031057610121565b8063095ea7b3116100f4578063095ea7b3146101c257806323b872dd146101de5780632de38d68146101fa57806342842e0e1461022a578063514dc8c61461024657610121565b806301ffc9a714610126578063060475901461015657806306fdde0314610174578063081812fc14610192575b600080fd5b610140600480360381019061013b919061267a565b6103f6565b60405161014d9190612e1e565b60405180910390f35b61015e6104d8565b60405161016b9190613099565b60405180910390f35b61017c6104e9565b6040516101899190612e39565b60405180910390f35b6101ac60048036038101906101a791906126cc565b61057b565b6040516101b99190612d8e565b60405180910390f35b6101dc60048036038101906101d7919061263e565b610600565b005b6101f860048036038101906101f39190612538565b610718565b005b610214600480360381019061020f91906126cc565b610778565b6040516102219190612e39565b60405180910390f35b610244600480360381019061023f9190612538565b610896565b005b610260600480360381019061025b91906126cc565b6108b6565b60405161026d9190612e39565b60405180910390f35b610290600480360381019061028b91906126cc565b6109d4565b60405161029d9190612d8e565b60405180910390f35b6102c060048036038101906102bb91906124d3565b610a86565b6040516102cd9190613099565b60405180910390f35b6102de610b3e565b6040516102eb9190612e39565b60405180910390f35b61030e60048036038101906103099190612602565b610bd0565b005b61032a600480360381019061032591906126cc565b610be6565b6040516103379190612e39565b60405180910390f35b61035a60048036038101906103559190612587565b610d04565b005b610376600480360381019061037191906126cc565b610d66565b6040516103839190612e39565b60405180910390f35b6103a660048036038101906103a191906126cc565b610e84565b6040516103b39190612e39565b60405180910390f35b6103c4610fd6565b005b6103e060048036038101906103db91906124fc565b6111e6565b6040516103ed9190612e1e565b60405180910390f35b60007f80ac58cd000000000000000000000000000000000000000000000000000000007bffffffffffffffffffffffffffffffffffffffffffffffffffffffff1916827bffffffffffffffffffffffffffffffffffffffffffffffffffffffff191614806104c157507f5b5e139f000000000000000000000000000000000000000000000000000000007bffffffffffffffffffffffffffffffffffffffffffffffffffffffff1916827bffffffffffffffffffffffffffffffffffffffffffffffffffffffff1916145b806104d157506104d082611313565b5b9050919050565b60006104e4600761137d565b905090565b6060600080546104f89061332d565b80601f01602080910402602001604051908101604052809291908181526020018280546105249061332d565b80156105715780601f1061054657610100808354040283529160200191610571565b820191906000526020600020905b81548152906001019060200180831161055457829003601f168201915b5050505050905090565b60006105868261138b565b6105c5576040517f08c379a00000000000000000000000000000000000000000000000000000000081526004016105bc90612ff9565b60405180910390fd5b6004600083815260200190815260200160002060009054906101000a900473ffffffffffffffffffffffffffffffffffffffff169050919050565b600061060b826109d4565b90508073ffffffffffffffffffffffffffffffffffffffff168373ffffffffffffffffffffffffffffffffffffffff16141561067c576040517f08c379a000000000000000000000000000000000000000000000000000000000815260040161067390613059565b60405180910390fd5b8073ffffffffffffffffffffffffffffffffffffffff1661069b6113f7565b73ffffffffffffffffffffffffffffffffffffffff1614806106ca57506106c9816106c46113f7565b6111e6565b5b610709576040517f08c379a000000000000000000000000000000000000000000000000000000000815260040161070090612f39565b60405180910390fd5b61071383836113ff565b505050565b6107296107236113f7565b826114b8565b610768576040517f08c379a000000000000000000000000000000000000000000000000000000000815260040161075f90613079565b60405180910390fd5b610773838383611596565b505050565b606060006107ac610788846117f2565b6040516020016107989190612d28565b60405160208183030381529060405261199f565b9050600a80549050816107bf91906133d9565b9050600a81815481106107fb577f4e487b7100000000000000000000000000000000000000000000000000000000600052603260045260246000fd5b9060005260206000200180546108109061332d565b80601f016020809104026020016040519081016040528092919081815260200182805461083c9061332d565b80156108895780601f1061085e57610100808354040283529160200191610889565b820191906000526020600020905b81548152906001019060200180831161086c57829003601f168201915b5050505050915050919050565b6108b183838360405180602001604052806000815250610d04565b505050565b606060006108ea6108c6846117f2565b6040516020016108d69190612d6c565b60405160208183030381529060405261199f565b9050600d80549050816108fd91906133d9565b9050600d8181548110610939577f4e487b7100000000000000000000000000000000000000000000000000000000600052603260045260246000fd5b90600052602060002001805461094e9061332d565b80601f016020809104026020016040519081016040528092919081815260200182805461097a9061332d565b80156109c75780601f1061099c576101008083540402835291602001916109c7565b820191906000526020600020905b8154815290600101906020018083116109aa57829003601f168201915b5050505050915050919050565b6000806002600084815260200190815260200160002060009054906101000a900473ffffffffffffffffffffffffffffffffffffffff169050600073ffffffffffffffffffffffffffffffffffffffff168173ffffffffffffffffffffffffffffffffffffffff161415610a7d576040517f08c379a0000000000000000000000000000000000000000000000000000000008152600401610a7490612f79565b60405180910390fd5b80915050919050565b60008073ffffffffffffffffffffffffffffffffffffffff168273ffffffffffffffffffffffffffffffffffffffff161415610af7576040517f08c379a0000000000000000000000000000000000000000000000000000000008152600401610aee90612f59565b60405180910390fd5b600360008373ffffffffffffffffffffffffffffffffffffffff1673ffffffffffffffffffffffffffffffffffffffff168152602001908152602001600020549050919050565b606060018054610b4d9061332d565b80601f0160208091040260200160405190810160405280929190818152602001828054610b799061332d565b8015610bc65780601f10610b9b57610100808354040283529160200191610bc6565b820191906000526020600020905b815481529060010190602001808311610ba957829003601f168201915b5050505050905090565b610be2610bdb6113f7565b83836119d2565b5050565b60606000610c1a610bf6846117f2565b604051602001610c069190612d06565b60405160208183030381529060405261199f565b9050600b8054905081610c2d91906133d9565b9050600b8181548110610c69577f4e487b7100000000000000000000000000000000000000000000000000000000600052603260045260246000fd5b906000526020600020018054610c7e9061332d565b80601f0160208091040260200160405190810160405280929190818152602001828054610caa9061332d565b8015610cf75780601f10610ccc57610100808354040283529160200191610cf7565b820191906000526020600020905b815481529060010190602001808311610cda57829003601f168201915b5050505050915050919050565b610d15610d0f6113f7565b836114b8565b610d54576040517f08c379a0000000000000000000000000000000000000000000000000000000008152600401610d4b90613079565b60405180910390fd5b610d6084848484611b3f565b50505050565b60606000610d9a610d76846117f2565b604051602001610d869190612ce4565b60405160208183030381529060405261199f565b9050600c8054905081610dad91906133d9565b9050600c8181548110610de9577f4e487b7100000000000000000000000000000000000000000000000000000000600052603260045260246000fd5b906000526020600020018054610dfe9061332d565b80601f0160208091040260200160405190810160405280929190818152602001828054610e2a9061332d565b8015610e775780601f10610e4c57610100808354040283529160200191610e77565b820191906000526020600020905b815481529060010190602001808311610e5a57829003601f168201915b5050505050915050919050565b6060610e8f8261138b565b610ece576040517f08c379a0000000000000000000000000000000000000000000000000000000008152600401610ec590612fd9565b60405180910390fd5b6000600660008481526020019081526020016000208054610eee9061332d565b80601f0160208091040260200160405190810160405280929190818152602001828054610f1a9061332d565b8015610f675780601f10610f3c57610100808354040283529160200191610f67565b820191906000526020600020905b815481529060010190602001808311610f4a57829003601f168201915b505050505090506000610f78611b9b565b9050600081511415610f8e578192505050610fd1565b600082511115610fc3578082604051602001610fab929190612be9565b60405160208183030381529060405292505050610fd1565b610fcc84611bb2565b925050505b919050565b6000610fe2600761137d565b90506000610fef82610778565b90506000610ffc83610be6565b9050600061100984610d66565b9050600083838360405160200161102293929190612c0d565b6040516020818303038152906040529050600061103e866108b6565b9050600060088260098560405160200161105b9493929190612c3e565b604051602081830303815290604052905060006110b68461108760018b6110829190613162565b6117f2565b61109085611c59565b6040516020016110a293929190612c87565b604051602081830303815290604052611c59565b90506000816040516020016110cb9190612d4a565b604051602081830303815290604052905061111a6040518060400160405280601581526020017f0a2d2d2d2d2d2d2d2d2d2d2d2d2d2d2d2d2d2d2d2d000000000000000000000081525061127a565b6111238161127a565b6111616040518060400160405280601581526020017f2d2d2d2d2d2d2d2d2d2d2d2d2d2d2d2d2d2d2d2d0a000000000000000000000081525061127a565b61116b338a611e17565b6111758982611e35565b61117f6007611ea9565b6111a2604051806060016040528060258152602001613b72602591398a33611ebf565b7febb98688741ffa4c7589bf325de30cf7becb63de567842e1ccdb6cb949fdc82c338a6040516111d3929190612df5565b60405180910390a1505050505050505050565b6000600560008473ffffffffffffffffffffffffffffffffffffffff1673ffffffffffffffffffffffffffffffffffffffff16815260200190815260200160002060008373ffffffffffffffffffffffffffffffffffffffff1673ffffffffffffffffffffffffffffffffffffffff16815260200190815260200160002060009054906101000a900460ff16905092915050565b6113108160405160240161128e9190612e39565b6040516020818303038152906040527f41304fac000000000000000000000000000000000000000000000000000000007bffffffffffffffffffffffffffffffffffffffffffffffffffffffff19166020820180517bffffffffffffffffffffffffffffffffffffffffffffffffffffffff8381831617835250505050611f5e565b50565b60007f01ffc9a7000000000000000000000000000000000000000000000000000000007bffffffffffffffffffffffffffffffffffffffffffffffffffffffff1916827bffffffffffffffffffffffffffffffffffffffffffffffffffffffff1916149050919050565b600081600001549050919050565b60008073ffffffffffffffffffffffffffffffffffffffff166002600084815260200190815260200160002060009054906101000a900473ffffffffffffffffffffffffffffffffffffffff1673ffffffffffffffffffffffffffffffffffffffff1614159050919050565b600033905090565b816004600083815260200190815260200160002060006101000a81548173ffffffffffffffffffffffffffffffffffffffff021916908373ffffffffffffffffffffffffffffffffffffffff160217905550808273ffffffffffffffffffffffffffffffffffffffff16611472836109d4565b73ffffffffffffffffffffffffffffffffffffffff167f8c5be1e5ebec7d5bd14f71427d1e84f3dd0314c0f7b2291e5b200ac8c7c3b92560405160405180910390a45050565b60006114c38261138b565b611502576040517f08c379a00000000000000000000000000000000000000000000000000000000081526004016114f990612f19565b60405180910390fd5b600061150d836109d4565b90508073ffffffffffffffffffffffffffffffffffffffff168473ffffffffffffffffffffffffffffffffffffffff16148061157c57508373ffffffffffffffffffffffffffffffffffffffff166115648461057b565b73ffffffffffffffffffffffffffffffffffffffff16145b8061158d575061158c81856111e6565b5b91505092915050565b8273ffffffffffffffffffffffffffffffffffffffff166115b6826109d4565b73ffffffffffffffffffffffffffffffffffffffff161461160c576040517f08c379a000000000000000000000000000000000000000000000000000000000815260040161160390613019565b60405180910390fd5b600073ffffffffffffffffffffffffffffffffffffffff168273ffffffffffffffffffffffffffffffffffffffff16141561167c576040517f08c379a000000000000000000000000000000000000000000000000000000000815260040161167390612ed9565b60405180910390fd5b611687838383611f87565b6116926000826113ff565b6001600360008573ffffffffffffffffffffffffffffffffffffffff1673ffffffffffffffffffffffffffffffffffffffff16815260200190815260200160002060008282546116e29190613243565b925050819055506001600360008473ffffffffffffffffffffffffffffffffffffffff1673ffffffffffffffffffffffffffffffffffffffff16815260200190815260200160002060008282546117399190613162565b92505081905550816002600083815260200190815260200160002060006101000a81548173ffffffffffffffffffffffffffffffffffffffff021916908373ffffffffffffffffffffffffffffffffffffffff160217905550808273ffffffffffffffffffffffffffffffffffffffff168473ffffffffffffffffffffffffffffffffffffffff167fddf252ad1be2c89b69c2b068fc378daa952ba7f163c4a11628f55a4df523b3ef60405160405180910390a4505050565b6060600082141561183a576040518060400160405280600181526020017f3000000000000000000000000000000000000000000000000000000000000000815250905061199a565b600082905060005b6000821461186c57808061185590613390565b915050600a8261186591906131b8565b9150611842565b60008167ffffffffffffffff8111156118ae577f4e487b7100000000000000000000000000000000000000000000000000000000600052604160045260246000fd5b6040519080825280601f01601f1916602001820160405280156118e05781602001600182028036833780820191505090505b5090505b60008514611993576001826118f99190613243565b9150600a8561190891906133d9565b60306119149190613162565b60f81b818381518110611950577f4e487b7100000000000000000000000000000000000000000000000000000000600052603260045260246000fd5b60200101907effffffffffffffffffffffffffffffffffffffffffffffffffffffffffffff1916908160001a905350600a8561198c91906131b8565b94506118e4565b8093505050505b919050565b6000816040516020016119b29190612bd2565b6040516020818303038152906040528051906020012060001c9050919050565b8173ffffffffffffffffffffffffffffffffffffffff168373ffffffffffffffffffffffffffffffffffffffff161415611a41576040517f08c379a0000000000000000000000000000000000000000000000000000000008152600401611a3890612ef9565b60405180910390fd5b80600560008573ffffffffffffffffffffffffffffffffffffffff1673ffffffffffffffffffffffffffffffffffffffff16815260200190815260200160002060008473ffffffffffffffffffffffffffffffffffffffff1673ffffffffffffffffffffffffffffffffffffffff16815260200190815260200160002060006101000a81548160ff0219169083151502179055508173ffffffffffffffffffffffffffffffffffffffff168373ffffffffffffffffffffffffffffffffffffffff167f17307eab39ab6107e8899845ad3d59bd9653f200f220920489ca2b5937696c3183604051611b329190612e1e565b60405180910390a3505050565b611b4a848484611596565b611b5684848484611f8c565b611b95576040517f08c379a0000000000000000000000000000000000000000000000000000000008152600401611b8c90612e99565b60405180910390fd5b50505050565b606060405180602001604052806000815250905090565b6060611bbd8261138b565b611bfc576040517f08c379a0000000000000000000000000000000000000000000000000000000008152600401611bf390613039565b60405180910390fd5b6000611c06611b9b565b90506000815111611c265760405180602001604052806000815250611c51565b80611c30846117f2565b604051602001611c41929190612be9565b6040516020818303038152906040525b915050919050565b60606000825190506000811415611c825760405180602001604052806000815250915050611e12565b60006003600283611c939190613162565b611c9d91906131b8565b6004611ca991906131e9565b90506000602082611cba9190613162565b67ffffffffffffffff811115611cf9577f4e487b7100000000000000000000000000000000000000000000000000000000600052604160045260246000fd5b6040519080825280601f01601f191660200182016040528015611d2b5781602001600182028036833780820191505090505b5090506000604051806060016040528060408152602001613b97604091399050600181016020830160005b86811015611dcf5760038101905062ffffff818a015116603f8160121c168401518060081b905060ff603f83600c1c1686015116810190508060081b905060ff603f8360061c1686015116810190508060081b905060ff603f831686015116810190508060e01b90508084526004840193505050611d56565b506003860660018114611de95760028114611df957611e04565b613d3d60f01b6002830352611e04565b603d60f81b60018303525b508484525050819450505050505b919050565b611e31828260405180602001604052806000815250612123565b5050565b611e3e8261138b565b611e7d576040517f08c379a0000000000000000000000000000000000000000000000000000000008152600401611e7490612f99565b60405180910390fd5b80600660008481526020019081526020016000209080519060200190611ea492919061235f565b505050565b6001816000016000828254019250508190555050565b611f59838383604051602401611ed793929190612e5b565b6040516020818303038152906040527fe3849f79000000000000000000000000000000000000000000000000000000007bffffffffffffffffffffffffffffffffffffffffffffffffffffffff19166020820180517bffffffffffffffffffffffffffffffffffffffffffffffffffffffff8381831617835250505050611f5e565b505050565b60008151905060006a636f6e736f6c652e6c6f679050602083016000808483855afa5050505050565b505050565b6000611fad8473ffffffffffffffffffffffffffffffffffffffff1661217e565b15612116578373ffffffffffffffffffffffffffffffffffffffff1663150b7a02611fd66113f7565b8786866040518563ffffffff1660e01b8152600401611ff89493929190612da9565b602060405180830381600087803b15801561201257600080fd5b505af192505050801561204357506040513d601f19601f8201168201806040525081019061204091906126a3565b60015b6120c6573d8060008114612073576040519150601f19603f3d011682016040523d82523d6000602084013e612078565b606091505b506000815114156120be576040517f08c379a00000000000000000000000000000000000000000000000000000000081526004016120b590612e99565b60405180910390fd5b805181602001fd5b63150b7a0260e01b7bffffffffffffffffffffffffffffffffffffffffffffffffffffffff1916817bffffffffffffffffffffffffffffffffffffffffffffffffffffffff19161491505061211b565b600190505b949350505050565b61212d8383612191565b61213a6000848484611f8c565b612179576040517f08c379a000000000000000000000000000000000000000000000000000000000815260040161217090612e99565b60405180910390fd5b505050565b600080823b905060008111915050919050565b600073ffffffffffffffffffffffffffffffffffffffff168273ffffffffffffffffffffffffffffffffffffffff161415612201576040517f08c379a00000000000000000000000000000000000000000000000000000000081526004016121f890612fb9565b60405180910390fd5b61220a8161138b565b1561224a576040517f08c379a000000000000000000000000000000000000000000000000000000000815260040161224190612eb9565b60405180910390fd5b61225660008383611f87565b6001600360008473ffffffffffffffffffffffffffffffffffffffff1673ffffffffffffffffffffffffffffffffffffffff16815260200190815260200160002060008282546122a69190613162565b92505081905550816002600083815260200190815260200160002060006101000a81548173ffffffffffffffffffffffffffffffffffffffff021916908373ffffffffffffffffffffffffffffffffffffffff160217905550808273ffffffffffffffffffffffffffffffffffffffff16600073ffffffffffffffffffffffffffffffffffffffff167fddf252ad1be2c89b69c2b068fc378daa952ba7f163c4a11628f55a4df523b3ef60405160405180910390a45050565b82805461236b9061332d565b90600052602060002090601f01602090048101928261238d57600085556123d4565b82601f106123a657805160ff19168380011785556123d4565b828001600101855582156123d4579182015b828111156123d35782518255916020019190600101906123b8565b5b5090506123e191906123e5565b5090565b5b808211156123fe5760008160009055506001016123e6565b5090565b6000612415612410846130d9565b6130b4565b90508281526020810184848401111561242d57600080fd5b6124388482856132eb565b509392505050565b60008135905061244f81613b15565b92915050565b60008135905061246481613b2c565b92915050565b60008135905061247981613b43565b92915050565b60008151905061248e81613b43565b92915050565b600082601f8301126124a557600080fd5b81356124b5848260208601612402565b91505092915050565b6000813590506124cd81613b5a565b92915050565b6000602082840312156124e557600080fd5b60006124f384828501612440565b91505092915050565b6000806040838503121561250f57600080fd5b600061251d85828601612440565b925050602061252e85828601612440565b9150509250929050565b60008060006060848603121561254d57600080fd5b600061255b86828701612440565b935050602061256c86828701612440565b925050604061257d868287016124be565b9150509250925092565b6000806000806080858703121561259d57600080fd5b60006125ab87828801612440565b94505060206125bc87828801612440565b93505060406125cd878288016124be565b925050606085013567ffffffffffffffff8111156125ea57600080fd5b6125f687828801612494565b91505092959194509250565b6000806040838503121561261557600080fd5b600061262385828601612440565b925050602061263485828601612455565b9150509250929050565b6000806040838503121561265157600080fd5b600061265f85828601612440565b9250506020612670858286016124be565b9150509250929050565b60006020828403121561268c57600080fd5b600061269a8482850161246a565b91505092915050565b6000602082840312156126b557600080fd5b60006126c38482850161247f565b91505092915050565b6000602082840312156126de57600080fd5b60006126ec848285016124be565b91505092915050565b6126fe81613277565b82525050565b61270d81613289565b82525050565b600061271e8261311f565b6127288185613135565b93506127388185602086016132fa565b612741816134c6565b840191505092915050565b60006127578261312a565b6127618185613146565b93506127718185602086016132fa565b61277a816134c6565b840191505092915050565b60006127908261312a565b61279a8185613157565b93506127aa8185602086016132fa565b80840191505092915050565b600081546127c38161332d565b6127cd8186613157565b945060018216600081146127e857600181146127f95761282c565b60ff1983168652818601935061282c565b6128028561310a565b60005b8381101561282457815481890152600182019150602081019050612805565b838801955050505b50505092915050565b6000612842603283613146565b915061284d826134d7565b604082019050919050565b6000612865600b83613157565b915061287082613526565b600b82019050919050565b6000612888601c83613146565b91506128938261354f565b602082019050919050565b60006128ab600a83613157565b91506128b682613578565b600a82019050919050565b60006128ce601483613157565b91506128d9826135a1565b601482019050919050565b60006128f1602483613146565b91506128fc826135ca565b604082019050919050565b6000612914601983613146565b915061291f82613619565b602082019050919050565b6000612937600b83613157565b915061294282613642565b600b82019050919050565b600061295a602c83613146565b91506129658261366b565b604082019050919050565b600061297d600d83613157565b9150612988826136ba565b600d82019050919050565b60006129a0603883613146565b91506129ab826136e3565b604082019050919050565b60006129c3602a83613146565b91506129ce82613732565b604082019050919050565b60006129e6602983613146565b91506129f182613781565b604082019050919050565b6000612a09602e83613146565b9150612a14826137d0565b604082019050919050565b6000612a2c600283613157565b9150612a378261381f565b600282019050919050565b6000612a4f602083613146565b9150612a5a82613848565b602082019050919050565b6000612a72603183613146565b9150612a7d82613871565b604082019050919050565b6000612a95602c83613146565b9150612aa0826138c0565b604082019050919050565b6000612ab8602983613146565b9150612ac38261390f565b604082019050919050565b6000612adb602f83613146565b9150612ae68261395e565b604082019050919050565b6000612afe602b83613157565b9150612b09826139ad565b602b82019050919050565b6000612b21602183613146565b9150612b2c826139fc565b604082019050919050565b6000612b44600a83613157565b9150612b4f82613a4b565b600a82019050919050565b6000612b67601d83613157565b9150612b7282613a74565b601d82019050919050565b6000612b8a603183613146565b9150612b9582613a9d565b604082019050919050565b6000612bad600583613157565b9150612bb882613aec565b600582019050919050565b612bcc816132e1565b82525050565b6000612bde8284612785565b915081905092915050565b6000612bf58285612785565b9150612c018284612785565b91508190509392505050565b6000612c198286612785565b9150612c258285612785565b9150612c318284612785565b9150819050949350505050565b6000612c4a82876127b6565b9150612c568286612785565b9150612c6282856127b6565b9150612c6e8284612785565b9150612c7982612970565b915081905095945050505050565b6000612c9282612858565b9150612c9e8286612785565b9150612ca9826128c1565b9150612cb58285612785565b9150612cc082612af1565b9150612ccc8284612785565b9150612cd782612a1f565b9150819050949350505050565b6000612cef8261289e565b9150612cfb8284612785565b915081905092915050565b6000612d118261292a565b9150612d1d8284612785565b915081905092915050565b6000612d3382612b37565b9150612d3f8284612785565b915081905092915050565b6000612d5582612b5a565b9150612d618284612785565b915081905092915050565b6000612d7782612ba0565b9150612d838284612785565b915081905092915050565b6000602082019050612da360008301846126f5565b92915050565b6000608082019050612dbe60008301876126f5565b612dcb60208301866126f5565b612dd86040830185612bc3565b8181036060830152612dea8184612713565b905095945050505050565b6000604082019050612e0a60008301856126f5565b612e176020830184612bc3565b9392505050565b6000602082019050612e336000830184612704565b92915050565b60006020820190508181036000830152612e53818461274c565b905092915050565b60006060820190508181036000830152612e75818661274c565b9050612e846020830185612bc3565b612e9160408301846126f5565b949350505050565b60006020820190508181036000830152612eb281612835565b9050919050565b60006020820190508181036000830152612ed28161287b565b9050919050565b60006020820190508181036000830152612ef2816128e4565b9050919050565b60006020820190508181036000830152612f1281612907565b9050919050565b60006020820190508181036000830152612f328161294d565b9050919050565b60006020820190508181036000830152612f5281612993565b9050919050565b60006020820190508181036000830152612f72816129b6565b9050919050565b60006020820190508181036000830152612f92816129d9565b9050919050565b60006020820190508181036000830152612fb2816129fc565b9050919050565b60006020820190508181036000830152612fd281612a42565b9050919050565b60006020820190508181036000830152612ff281612a65565b9050919050565b6000602082019050818103600083015261301281612a88565b9050919050565b6000602082019050818103600083015261303281612aab565b9050919050565b6000602082019050818103600083015261305281612ace565b9050919050565b6000602082019050818103600083015261307281612b14565b9050919050565b6000602082019050818103600083015261309281612b7d565b9050919050565b60006020820190506130ae6000830184612bc3565b92915050565b60006130be6130cf565b90506130ca828261335f565b919050565b6000604051905090565b600067ffffffffffffffff8211156130f4576130f3613497565b5b6130fd826134c6565b9050602081019050919050565b60008190508160005260206000209050919050565b600081519050919050565b600081519050919050565b600082825260208201905092915050565b600082825260208201905092915050565b600081905092915050565b600061316d826132e1565b9150613178836132e1565b9250827fffffffffffffffffffffffffffffffffffffffffffffffffffffffffffffffff038211156131ad576131ac61340a565b5b828201905092915050565b60006131c3826132e1565b91506131ce836132e1565b9250826131de576131dd613439565b5b828204905092915050565b60006131f4826132e1565b91506131ff836132e1565b9250817fffffffffffffffffffffffffffffffffffffffffffffffffffffffffffffffff04831182151516156132385761323761340a565b5b828202905092915050565b600061324e826132e1565b9150613259836132e1565b92508282101561326c5761326b61340a565b5b828203905092915050565b6000613282826132c1565b9050919050565b60008115159050919050565b60007fffffffff0000000000000000000000000000000000000000000000000000000082169050919050565b600073ffffffffffffffffffffffffffffffffffffffff82169050919050565b6000819050919050565b82818337600083830152505050565b60005b838110156133185780820151818401526020810190506132fd565b83811115613327576000848401525b50505050565b6000600282049050600182168061334557607f821691505b6020821081141561335957613358613468565b5b50919050565b613368826134c6565b810181811067ffffffffffffffff8211171561338757613386613497565b5b80604052505050565b600061339b826132e1565b91507fffffffffffffffffffffffffffffffffffffffffffffffffffffffffffffffff8214156133ce576133cd61340a565b5b600182019050919050565b60006133e4826132e1565b91506133ef836132e1565b9250826133ff576133fe613439565b5b828206905092915050565b7f4e487b7100000000000000000000000000000000000000000000000000000000600052601160045260246000fd5b7f4e487b7100000000000000000000000000000000000000000000000000000000600052601260045260246000fd5b7f4e487b7100000000000000000000000000000000000000000000000000000000600052602260045260246000fd5b7f4e487b7100000000000000000000000000000000000000000000000000000000600052604160045260246000fd5b6000601f19601f8301169050919050565b7f4552433732313a207472616e7366657220746f206e6f6e20455243373231526560008201527f63656976657220696d706c656d656e7465720000000000000000000000000000602082015250565b7f7b20226e616d65223a2022000000000000000000000000000000000000000000600082015250565b7f4552433732313a20746f6b656e20616c7265616479206d696e74656400000000600082015250565b7f54484952445f574f524400000000000000000000000000000000000000000000600082015250565b7f222c20226465736372697074696f6e22203a2022000000000000000000000000600082015250565b7f4552433732313a207472616e7366657220746f20746865207a65726f2061646460008201527f7265737300000000000000000000000000000000000000000000000000000000602082015250565b7f4552433732313a20617070726f766520746f2063616c6c657200000000000000600082015250565b7f5345434f4e445f574f5244000000000000000000000000000000000000000000600082015250565b7f4552433732313a206f70657261746f7220717565727920666f72206e6f6e657860008201527f697374656e7420746f6b656e0000000000000000000000000000000000000000602082015250565b7f3c2f746578743e3c2f7376673e00000000000000000000000000000000000000600082015250565b7f4552433732313a20617070726f76652063616c6c6572206973206e6f74206f7760008201527f6e6572206e6f7220617070726f76656420666f7220616c6c0000000000000000602082015250565b7f4552433732313a2062616c616e636520717565727920666f7220746865207a6560008201527f726f206164647265737300000000000000000000000000000000000000000000602082015250565b7f4552433732313a206f776e657220717565727920666f72206e6f6e657869737460008201527f656e7420746f6b656e0000000000000000000000000000000000000000000000602082015250565b7f45524337323155524953746f726167653a2055524920736574206f66206e6f6e60008201527f6578697374656e7420746f6b656e000000000000000000000000000000000000602082015250565b7f227d000000000000000000000000000000000000000000000000000000000000600082015250565b7f4552433732313a206d696e7420746f20746865207a65726f2061646472657373600082015250565b7f45524337323155524953746f726167653a2055524920717565727920666f722060008201527f6e6f6e6578697374656e7420746f6b656e000000000000000000000000000000602082015250565b7f4552433732313a20617070726f76656420717565727920666f72206e6f6e657860008201527f697374656e7420746f6b656e0000000000000000000000000000000000000000602082015250565b7f4552433732313a207472616e73666572206f6620746f6b656e2074686174206960008201527f73206e6f74206f776e0000000000000000000000000000000000000000000000602082015250565b7f4552433732314d657461646174613a2055524920717565727920666f72206e6f60008201527f6e6578697374656e7420746f6b656e0000000000000000000000000000000000602082015250565b7f2f35222c2022696d61676522203a202022646174613a696d6167652f7376672b60008201527f786d6c3b6261736536342c000000000000000000000000000000000000000000602082015250565b7f4552433732313a20617070726f76616c20746f2063757272656e74206f776e6560008201527f7200000000000000000000000000000000000000000000000000000000000000602082015250565b7f46495253545f574f524400000000000000000000000000000000000000000000600082015250565b7f646174613a6170706c69636174696f6e2f6a736f6e3b6261736536342c000000600082015250565b7f4552433732313a207472616e736665722063616c6c6572206973206e6f74206f60008201527f776e6572206e6f7220617070726f766564000000000000000000000000000000602082015250565b7f434f4c4f52000000000000000000000000000000000000000000000000000000600082015250565b613b1e81613277565b8114613b2957600080fd5b50565b613b3581613289565b8114613b4057600080fd5b50565b613b4c81613295565b8114613b5757600080fd5b50565b613b63816132e1565b8114613b6e57600080fd5b5056fe416e204e465420772f20494420257320686173206265656e206d696e74656420746f2025734142434445464748494a4b4c4d4e4f505152535455565758595a6162636465666768696a6b6c6d6e6f707172737475767778797a303132333435363738392b2fa264697066735822122080d22b6194f00c7b15c828ed1a5dc815046350a6dee75f76a753c7531c6a89cb64736f6c634300080400333c73766720786d6c6e733d27687474703a2f2f7777772e77332e6f72672f323030302f73766727207072657365727665417370656374526174696f3d27784d696e594d696e206d656574272076696577426f783d273020302033353020333530273e3c7374796c653e2e62617365207b2066696c6c3a2077686974653b20666f6e742d66616d696c793a2073657269663b20666f6e742d73697a653a20323470783b207d3c2f7374796c653e3c726563742077696474683d273130302527206865696768743d2731303025272066696c6c3d27272f3e3c7465787420783d273530252720793d273530252720636c6173733d27626173652720646f6d696e616e742d626173656c696e653d276d6964646c652720746578742d616e63686f723d276d6964646c65273e",
  "linkReferences": {},
  "deployedLinkReferences": {}
}